S0120000736572766F6D6F746F722E73726563B2
S11300000C9434000C9446000C9446000C94460066
S11300100C9446000C9446000C9446000C94460044
S11300200C9446000C9446000C9446000C94460034
S11300300C9446000C9446000C9446000C94460024
S11300400C9446000C9446000C9446000C94460014
S11300500C9446000C9446000C9446000C94460004
S11300600C9446000C94460011241FBECFEFD8E038
S1130070DEBFCDBF21E0A0E0B1E001C01D92AC30F5
S1130080B207E1F70E949F000C9470010C940000E9
S113009084B5816A84BD85B5846085BD0895E0E832
S11300A0F0E08081816A8083E1E8F0E0808184600F
S11300B080830895E0EBF0E08081816A8083E1EB46
S11300C0F0E0808184608083089580E480937C00E4
S11300D0EAE7F0E0808186688083089581E4809374
S11300E07C00EAE7F0E0808186688083089582E4FA
S11300F080937C00EAE7F0E080818668808308953D
S113010083E480937C00EAE7F0E080818668808362
S1130110089585E480937C00EAE7F0E080818668B6
S113012080830895EAE7F0E08081806480838081A1
S113013086FDFDCF8091780090917900089584B177
S11301408E6084B98AB188668AB917B80E9448005B
S11301500E944F000E945A00C7E20FEF13E00F2ED7
S1130160F4E16F2EF02D0F2EFEE17F2EF02D0F2ED9
S1130170F8E88F2E912CF02D0F2EF4E1AF2EB12C38
S1130180F02D0F2EFAE8CF2ED12CF02D0F2EF3EBFD
S1130190EF2EF12CF02DDCE30E9465000E9492000A
S11301A09C01C29FC001C39F900D1124B8010E94FD
S11301B04D0170930701609306016431710510F0DD
S11301C067BC01C067BD0E946E000E949200FC01E2
S11301D0CE9FC001CF9F900D1124B8010E944D0104
S11301E070930301609302016E31710510F078BCC5
S11301F001C068BD0E9477000E9492009C01C29FCA
S1130200C001C39F900D1124B8010E944D01709349
S11302100501609304016431710520F0F401B18299
S1130220A08201C067BD0E9480000E9492009C01D0
S1130230C29FC001C39F900D1124B8010E944D01BB
S113024070930B0160930A016431710520F0F6018B
S1130250B182A08203C0F601718360830E94890089
S11302600E949200C89F9001C99F300D1124A1E8FB
S1130270B0E80E946101880F892F881F990B91951E
S113028090930901809308018C33910518F0F701CC
S1130290D08382CFF70180837FCFAA1BBB1B51E1A0
S11302A007C0AA1FBB1FA617B70710F0A61BB70BE2
S11302B0881F991F5A95A9F780959095BC01CD0187
S11302C00895A29FB001B39FC001A39F700D811D2B
S11302D01124911DB29F700D811D1124911D08954B
S10702E0F894FFCFBC
S9030000FC
